:020000040800F2
:10000000988400205D0200089F41000885230008B5
:100010009D41000847070008ED510008000000005E
:100020000000000000000000000000009D0100082A
:100030009907000800000000F90100087943000852
:1000400077020008770200087702000877020008AC
:10005000770200087702000877020008770200089C
:10006000770200087702000877020008770200088C
:10007000770200087702000877020008770200087C
:10008000770200087702000877020008770200086C
:10009000770200087702000877020008770200085C
:1000A000770200087702000811470008354400086D
:1000B000770200087702000877020008770200083C
:1000C000770200087702000877020008770200082C
:1000D00077020008A5500008770200088551000843
:1000E000770200087702000877020008E949000853
:1000F000194A000877020008770200087702000812
:1001000077020008770200087702000877020008EB
:1001100077020008770200081948000825490008FE
:1001200077020008770200087702000877020008CB
:1001300077020008770200087702000877020008BB
:1001400077020008770200087702000877020008AB
:10015000770200087702000877020008770200089B
:10016000770200087702000877020008770200088B
:1001700077020008770200087702000800000000FC
:100180007702000877020008DFF80CD000F09EFA32
:100190000048004721600008988400202C4B196813
:1001A0000868B0E8F04F80F30988BFF36F8F4FF015
:1001B000000080F3118870470000000008480068C4
:1001C000006880F308884FF0000080F3148862B65E
:1001D00061B6BFF34F8FBFF36F8F00DF00BF00BF6B
:1001E00008ED00E0DFF80C00016841F470010160E7
:1001F000704700BF88ED00E0EFF30980BFF36F8F19
:10020000134B1A681EF0100F08BF20ED108A20E96A
:10021000F04F106009B44FF0500080F31188BFF325
:100220004F8FBFF36F8F07F091FF4FF0000080F307
:10023000118809BC19680868B0E8F04F1EF0100F6B
:1002400008BFB0EC108A80F30988BFF36F8F704746
:1002500094010020EFF305807047000006488047B6
:1002600006480047FEE7FEE7FEE7FEE7FEE7FEE79B
:10027000FEE7FEE7FEE7FEE72544000889010008E7
:100280002DE9F05F0546002092469B4688460646CB
:10029000814640241BE0284641464746224600F05E
:1002A00070F953465A46C01A914110D31146184668
:1002B000224600F057F92D1A67EB01084F462246F7
:1002C0000120002100F04EF917EB00094E41201EDD
:1002D000A4F10104DFDC484631462A464346BDE826
:1002E000F09F40EA01039B0703D009E008C9121FF1
:1002F00008C0042AFAD203E011F8013B00F8013BE0
:10030000521EF9D27047D2B201E000F8012B491E0B
:10031000FBD270470022F6E710B513460A460446A2
:100320001946FFF7F0FF204610BD2DE9FE4F81EA88
:10033000030404F0004421F0004100944FF0000B4E
:1003400023F0004350EA01045ED052EA03045BD07C
:10035000C3F30A54C1F30A552C44A4F2F3340194B4
:10036000A0FB0254C1F3130141F48011C3F3130342
:1003700043F4801301FB024400FB034E840A970AF6
:1003800044EA815447EA8357A4FB076802958D0A23
:1003900005FB07854FEA932C04FB0C542705029DAF
:1003A0004FEA065847EA1637B5EB08056EEB070C1F
:1003B000870E920E47EA811742EA8312A7FB0201D9
:1003C000B6EB0B0164EB00042B0D43EA0C335E1813
:1003D00044EB1C50DA465146E7FB0201C5F3130417
:1003E0004FEA0B3343EA14534FEA0432019C43EAC9
:1003F0000603A4F10C040294009CCDE900B400F0C3
:1004000016F903B0BDE8F08F00200146F9E72DE9A9
:10041000F04D81EA030404F0004B21F0004514463E
:100420004FF0000A23F0004150EA050220D054EAC0
:1004300001021DD0C5F30A570246C5F31303C1F3E9
:100440001300C1F30A5640F4801543F48013A7EB60
:100450000608101BD64608F2FD3873EB050002D3E0
:1004600008F1010801E092185B41B8F1000F03DACE
:1004700000200146BDE8F08D00204FF480110646B3
:1004800084460EE0171B73EB050705D3121B63EBC5
:10049000050306434CEA010C49084FEA3000921864
:1004A0005B4150EA0107EDD152EA030012D082EA23
:1004B000040083EA0501084305D0101BAB4106D2B6
:1004C0000122002306E000224FF0004302E06FF01B
:1004D000010253101AEB06004CEB085110EB0A0016
:1004E00041EB0B01BDE8F04D00F092B80EB540F2C3
:1004F000334102910021CDE900110A460B4600F07C
:1005000096F803B000BD00F0004230F000400AD081
:10051000C10D01F56071C0F3160042EA0151C20835
:1005200040071143704700200146704701F0004327
:1005300030B421F0004150EA010206D00A0DA2F5C4
:100540006072C1F31301002A02DC30BC0020704746
:10055000440F44EAC104C100E01830BC00EBC250B3
:1005600000F01FB8202A04DB203A00FA02F1002034
:1005700070479140C2F1200320FA03F319439040E1
:100580007047202A04DB203A21FA02F0002170474C
:1005900021FA02F3D040C2F12002914008431946EB
:1005A00070470029A8BF7047401C490008BF20F0D1
:1005B0000100704710B4B0FA80FC00FA0CF050EA69
:1005C000010404BF10BC704749B1CCF1200421FAEA
:1005D00004F411FA0CF118BF012121430843A3EBE5
:1005E0000C01CB1D4FEA00614FEA102042BF0020F2
:1005F00010BC704700EBC35010440029A4BF10BCCE
:100600007047401C490008BF20F0010010BC704733
:1006100010B5141E73F1000408DA401C41F100010A
:1006200092185B411A4301D120F0010010BD2DE961
:10063000F04D92469B4611B1B1FA81F202E0B0FA58
:1006400080F220329046FFF78DFF04460F4640EAC5
:100650000A0041EA0B0153465A46084313D011469B
:1006600053EA010019D0C8F140025046FFF789FF54
:1006700005460E46504659464246FFF773FF08436B
:1006800005D0012004E020463946BDE8F08D002069
:10069000054346EAE0762C4337430A986305E40AAB
:1006A000A0EB08000022FD0A44EA47540A3002D5B4
:1006B00000200146E9E7010510196941DDE9084517
:1006C00000196941BDE8F04DA2E70000064C074D56
:1006D00006E0E06840F0010394E807009847103412
:1006E000AC42F6D3FFF754FDEC8D00080C8E0008E9
:1006F00070B58C1810F8015B15F0070301D110F8E4
:10070000013B2A1106D110F8012B03E010F8016B10
:1007100001F8016B5B1EF9D12B0705D40023521E93
:100720000DD401F8013BFAE710F8013BCB1A921CFB
:1007300003E013F8015B01F8015B521EF9D5A142F9
:10074000D8D3002070BDFEE730B5074A5368074C88
:10075000074D00212468B4FBF5F4444301E05068E0
:10076000C11AA142FBD330BD001000E0900100206F
:1007700040420F000648016841F080710160054861
:1007800000214160016841F00101016070470000F3
:10079000FCED00E0001000E07047012005F0D6FEFF
:1007A000FBE772B6FEE72DE9F0410446876D00F0E5
:1007B00065F9064694F835000025022806D0802009
:1007C000606584F834500120BDE8F081206801683C
:1007D00021F0160101602068416921F0800141612A
:1007E000206C08B9A06C20B12068016821F00801D4
:1007F00001602068016821F0010101600CE000F057
:100800003DF9801B052807D920206065032084F866
:10081000350084F83450D7E720680068C007EED16F
:1008200094F85C103F208840B860012084F83500BF
:1008300084F834500020C7E790F83510022903D01F
:100840008021416501207047052180F8351000683E
:10085000016821F0010101600020704770B5044675
:1008600000F00CF90546601C02D0044800780444EE
:1008700000F004F9401BA042FAD370BD84010020AF
:100880002DE9F84FDFF8BCA10022012503264FF027
:100890000F090AF1040BAAF1040E00BF0B6805FA58
:1008A00002F42340A34270D10F7907F00307012F10
:1008B00001D0022F16D187684FEA420806FA08FCD9
:1008C00027EA0C07D1F80CC00CFA08FC4CEA070C1C
:1008D000C0F808C04768A7430C79C4F300149440DB
:1008E0003C4344600C79E443A4070AD0C4684FEA4F
:1008F000420C06FA0CF7BC438F6807FA0CF7274343
:10090000C7600C7904F00304022C12D1D40800EB68
:10091000840CDCF820405707FF0E09FA07F824EA98
:100920000804D1F8108008FA07F848EA0408CCF85F
:10093000208004684FEA420C06FA0CF7BC430F799A
:1009400007F0030707FA0CF7274307604C6814F415
:10095000403F70D03C4C276847F4804727602468AC
:1009600022F0030704F480440094384C07EB040C95
:10097000DCF8084897074FEA177809FA08F7BC43EC
:10098000334FB84202D1002724E054E0314FB8423F
:1009900001D101271EE0304FB84201D1022719E0F2
:1009A0002E4FB84201D1032714E02D4FB84201D198
:1009B00004270FE02B4FB84201D105270AE02A4F48
:1009C000B84201D1062705E0284FB84201D10727D8
:1009D00000E0082707FA08F72743CCF80878DAF888
:1009E00000405746D1F804C09C435FEACC2C00D5A8
:1009F0001C433C60DBF800405F46D1F804C09C43D8
:100A00005FEA8C2C00D51C433C60DEF80040774642
:100A1000D1F804C09C435FEA8C3C00D51C433C6089
:100A2000084F083F3C68D1F804C09C435FEACC3CC7
:100A300000D51C433C60521C102AFFF42FAFBDE8C8
:100A4000F88F0000083C014044380240003001406B
:100A5000000002400004024000080240000C024076
:100A6000001002400014024000180240001C024026
:100A70000AB1816170470904FBE700000148806802
:100A80007047000084010020024881680278114408
:100A900081607047840100200B4810B5016841F463
:100AA00000710160016841F480610160016841F4F6
:100AB00080710160032000F09FF80F2000F006F81D
:100AC00000F050F8002010BD003C024030B5054653
:100AD0001F4887B00024016841F080010160006870
:100AE00006A900F08000009001A800F031F90498F8
:100AF000A8B100F04DF940001649174AB0FBF1F1DA
:100B00001648491E026040F2E732C0E90324C0E9FA
:100B10000114846100F082FB040003D015E000F0B2
:100B200037F9E9E70D4800F093FC04000DD12C20C3
:100B300000F034F8102D07D2002229462C2000F0B6
:100B40003BF80748056000E0012407B0204630BDAF
:100B50004038024040420F00001C00407823002033
:100B6000880100200C4882B0016841F48041016096
:100B7000006800F4804000900748001F016841F0C1
:100B8000805101600068002200F0805000900F2129
:100B9000901E02B000F010B844380240002809DB73
:100BA00000F01F02012191404009800000F1E02087
:100BB000C0F8001170470000F0B40E4B1B680C46E3
:100BC000C3F30223C3F10705042D00D90425191D21
:100BD000072901D2002300E0DB1E012606FA05F1F9
:100BE000491E214099409E40761E16403143F0BC7C
:100BF00004F07ABD0CED00E0064900F00702086839
:100C00004FF6FF03184040EA0220034A10430860F1
:100C1000704700000CED00E00000FA052DE9F047F8
:100C20000E46050065D0DFF81481D8F80000F7B251
:100C300000F00700B04207D288F80070D8F8000032
:100C400000F00700B04254D128683D4C810712D50E
:100C5000400703D5206840F4E05020602878000762
:100C600003D5206840F4604020602068A96820F027
:100C7000F000084320602878C0072DD0304968680C
:100C80000839012812D0022813D0032811D009688E
:100C9000890700292DDA216821F003010143216031
:100CA000FFF7ECFE814641F2883A0EE009688903BD
:100CB000EFE709688901ECE7FFF7E0FEA0EB090127
:100CC000514502D90320BDE8F0872068696800F02B
:100CD0000C00B0EB810FEFD1D8F80010404601F0C6
:100CE0000701B14207D90770006800F00700B04261
:100CF00001D00120E7E72878400705D52068E9689A
:100D000020F4E050084320602878000706D52068CA
:100D1000296920F4604040EAC100206000F058F8E2
:100D20002168084AC1F30311515CC84006490860B4
:100D300006480068FFF7CAFE0020C4E7003C0240F6
:100D4000083802405C8D00089001002088010020D6
:100D50000F2202600C4A136803F003034360136818
:100D600003F0F0038360136803F4E053C360126878
:100D70004FF4E05303EAD20202610448006800F035
:100D8000070008607047000008380240003C02403D
:100D90000448054900680968044AC1F38221515C8E
:100DA000C840704790010020083802406C8D000850
:100DB0000448054900680968044AC1F34231515C9E
:100DC000C840704790010020083802406C8D000830
:100DD000104810B5006810F00C010F4818D0042915
:100DE00016D0082914D10B4C241F216801F03F02B2
:100DF000216821680023C1F38811A1FB0001FFF7DE
:100E00003FFA2168C1F30141491C4900B0FBF1F0F0
:100E100010BD0000083802400024F4002DE9F84F0E
:100E200004006ED02078DFF84C93C007A9F10405C8
:100E30004AD009F104000168C1F38101012908D0F9
:100E40000068C0F3810002280AD1D9F800004002EE
:100E500006D52868800337D560680028E1D033E0E4
:100E60006068B0F5803F10D0B0F5A02F286810D092
:100E700020F480302860286820F480202860606892
:100E8000A8B1FFF7FBFD06460DE0286840F480306E
:100E9000F4E740F480202860F7E700BFFFF7EEFD9D
:100EA000801B642873D828688003F7D50CE0FFF70F
:100EB000E5FD064605E000BFFFF7E0FD801B642866
:100EC000F0D828688003F7D42078DFF8AC82800758
:100ED0004FF0000A3ED5A748001D016811F00C0F25
:100EE00008D00068C0F3810002280BD1D9F80000B7
:100EF000400207D42868800716D5E068012800D191
:100F000012E033E1E068B8B10120C8F80000FFF753
:100F1000B5FD064605E000BFFFF7B0FD801B0228C7
:100F2000C0D828688007F7D52868216920F0F80024
:100F300040EAC10028600DE0C8F800A0FFF79EFD60
:100F4000064604E0FFF79AFD801B02281FD8286898
:100F50008007F7D42078000722D5864F874861693B
:100F6000703771B101210160FFF788FD064604E08A
:100F7000FFF784FD801B022809D838688007F7D561
:100F80000EE0C0F800A0FFF779FD064605E082E01C
:100F9000FFF774FD801B02287DD838688007F7D4DE
:100FA0002078400768D5DFF8CCB100270BF13C0B67
:100FB000DBF80000C0000BD4DBF8001041F08051DA
:100FC000CBF80010DBF80000012700F08050009003
:100FD0006B4E3068C00510D4306840F480703060CB
:100FE000FFF74CFD009005E0FFF748FD0099401A1F
:100FF000022850D83068C005F6D55E4EA0686C3621
:1010000001280FD00528306810D020F00100306092
:10101000306820F004003060A068B8B1FFF72EFD02
:1010200000900FE0306840F00100F4E740F0040069
:101030003060F7E7FFF722FD0099411A41F288304E
:10104000814266D830688007F4D50EE0FFF716FDC0
:10105000009007E0FFF712FD0099411A41F2883035
:10106000814256D830688007F4D42FB1DBF80010E5
:1010700021F08051CBF80010A069C8B33D49091D8B
:101080000968C1F3810102294AD00228504607D0DD
:10109000C8F8600000E03CE0FFF7F0FC04463BE0ED
:1010A0004746C8F86000FFF7E9FC064605E000BFC8
:1010B000FFF7E4FC801B02282BD828688001F7D4B6
:1010C000D4E907010843A16A2E4A490802EB01410D
:1010D000626A41EA8211084394F82C1040EA0161E7
:1010E000C9F8001001203866FFF7C8FC044606E086
:1010F0003EE000BFFFF7C2FC001B022809D82868A9
:101100008001F7D534E000BFFFF7B8FC001B0228D0
:1011100002D90320BDE8F88F28688001F4D427E0C5
:101120000128F7D0D9F80000E26900F4800191426B
:101130001CD1226A00F03F01914217D147F6C071DD
:10114000626A0140B1EB821F10D1A26A4FF0FF33F7
:1011500000F4403103EB5202B1EB024F06D194F898
:101160002C1000F07060B0EB016F01D00120D1E7CE
:101170000020CFE70438024000004742800E47427B
:10118000007000400000FFFF7047704770B590F896
:101190003C20012A32D0012480F83C40022280F811
:1011A0003D2003685A689D6822F070060A68324341
:1011B0005A60134B02689A4214D0B2F1804F11D09A
:1011C000104B9A420ED0104B9A420BD00F4B9A42C2
:1011D00008D00F4B9A4205D00E4B9A4202D00E4BCC
:1011E0009A4204D1496825F080031943916080F840
:1011F0003D40002180F83C10084670BD022070BDC3
:10120000000001400004004000080040000C0040C5
:1012100000040140004001400018004010B50400E7
:1012200003D094F83D0010B107E0012010BD00206C
:1012300084F83C00204600F01FF8022084F83D00AE
:10124000211D206803F0F6FB012084F8460084F895
:101250003E0084F83F0084F8400084F8410084F8A0
:10126000420084F8430084F8440084F8450084F880
:101270003D00002010BD000010B586B004461421CA
:101280006846FFF747F84C4B226800204B499A42CA
:101290002DD10A6842F001020A60096801F00101DB
:1012A0000591464914390A6842F010020A6009683B
:1012B00001F0100105914FF4285100910221CDE970
:1012C000011003900120049069463D48FFF7D8FAC9
:1012D000002207211A20FFF76FFC1A20FFF75EFC9F
:1012E000002205211B20FFF767FC1B2015E0334877
:1012F000001FB2F1804F14D0324B9A4219D10168CD
:1013000041F0100101600068002200F0100005901B
:1013100006213620FFF750FC3620FFF73FFC06B0D1
:1013200010BD016841F001010160006800F001009A
:101330001BE0254B9A420ED1016841F0200101606B
:101340000068002200F02000059006213720FFF7FA
:1013500033FC3720E1E71D4B9A4208D1086840F47E
:1013600080300860086800F480300590D7E7184B9B
:101370009A420ED1086840F4802008600868002274
:1013800000F48020059007211A20FFF715FC1A2091
:10139000C3E710498A42C2D1016841F040010160AF
:1013A0000068002200F04000059006212B20FFF786
:1013B00003FC2B20B1E7000000000140443802404C
:1013C00000100240001000400014004000400140A6
:1013D000004801400018004090F83D10012901D05C
:1013E00001207047022180F83D10006811498842B1
:1013F00014D0B0F1804F11D00F4988420ED00F4960
:1014000088420BD00E49884208D00E49884205D048
:101410000D49884202D00D49884204D1816801F00B
:101420000701062903D0016841F001010160002095
:101430007047000000000140000400400008004028
:10144000000C004000040140004001400018004032
:1014500090F83D10012901D001207047022180F849
:101460003D100168CA6842F00102CA600068114973
:10147000884214D0B0F1804F11D00F4988420ED06D
:101480000E4988420BD00E49884208D00D49884247
:1014900005D00D49884202D00C49884204D18168A8
:1014A00001F00701062903D0016841F00101016044
:1014B0000020704700000140000400400008004088
:1014C000000C0040000401400040014000180040B2
:1014D00070B5044690F83C000025012817D001267D
:1014E00084F83C60022084F83D002068826822F085
:1014F000770222F47F4282600868502838D00DDCE1
:1015000020284FD005DC90B3102811D14AE00220EA
:1015100070BD302846D040280AD13BE060282FD04B
:1015200070280DD0B0F5805F03D0B0F5005F12D009
:10153000012584F83D60002084F83C00284670BDF9
:10154000CB68D1E90121206803F0EDFA20688168B9
:1015500041F0770109E0CB68D1E90121206803F06F
:10156000E2FA2068816841F480418160E1E719E096
:10157000CA684968206803F0ABFB5021206806E088
:10158000CA684968206803F0F5FB6021206803F011
:10159000D4FACEE7CA684968206803F099FB402175
:1015A0002068F4E7226801461046F0E72DE9F04193
:1015B0000D46040003D094F83D0018B108E0012066
:1015C000BDE8F081002084F83C00204600F040F89F
:1015D000022084F83D002068816844F207029143AC
:1015E0008160211D206803F025FA226890689169C6
:1015F000166A2B68AF69034340F20330814341EA26
:101600000721A868EF6908434FF6FC418843E96861
:1016100040EA0720014328692F6A000140EA0730A9
:10162000084369686D6926F0AA0646EA051529434C
:1016300093602268906154F8460B0162012004F81F
:101640001F09E0752076E0762077A0750020B7E7C7
:10165000F0B587B0044614216846FEF75BFE4549A5
:10166000434E25680022434C1039C02702234248CC
:10167000B54210D1256845F002052560246804F0C4
:10168000020405940C6844F001040C60096800979A
:1016900001F0010135E0394EB5421DD1206840F01E
:1016A00004002060206800F004000590086840F005
:1016B000080008600868694600F0080005904FF4CB
:1016C00040500090CDE901322D48CDE9032300BF01
:1016D000FFF7D6F807B0F0BDDFF8A8C003266545D0
:1016E00016D1256845F008052560246804F0080433
:1016F00005940C6844F001040C600968009601F040
:101700000101CDE90132CDE9043103926946DFE7F9
:101710001D488542DED11748001D046844F00204CC
:101720000460006800F002000590086840F00400C2
:10173000086008680097CDE9013200F00400CDE9A7
:101740000460694603921148FFF79AF800220621C7
:101750002B20FFF731FA2B20FFF720FA00220F2170
:101760002C20FFF729FA2C20FFF718FAB2E7000027
:1017700000040040403802400000024000080040E1
:10178000000C0240000C0040000401400008024030
:1017900070B590F83E60044690F83F5090F84230A3
:1017A00090F84320022021B104290ED0012E1BD134
:1017B00014E0012E18D1012B16D184F83E0084F8D4
:1017C000420001220021206820E0012D0CD1012AD5
:1017D0000AD184F83F0084F8430014E0012D03D1BE
:1017E000012B01D1012A01D0012070BD84F83E00F7
:1017F00084F83F0084F8420084F84300012200216D
:10180000206803F083F901220421206803F07EF9A7
:101810002068016841F001010160002070BD70473F
:101820002DE9F041054690F83C0000260C460128C1
:1018300010D0012085F83C0072B1042A1CD0082A7F
:101840002CD00C2A50D00126002085F83C003046D0
:10185000BDE8F0810220FBE7D4E90012E3682868C4
:1018600003F048FA2868816921F00C018161286839
:101870008169A26811430FE0D4E90012E368286887
:1018800003F08AFA2868816921F44061816128683F
:101890008169A26841EA02218161D5E72868D4E91B
:1018A000002C277B036A016A21F480710162C169FF
:1018B00023F4206321F0030141EA0C0121F0F00C34
:1018C00039074FF420674CEA116107EA02221A43F4
:1018D000C16102622868C16921F00C01C1612868F8
:1018E000C169A26811432BE02868D4E90021E768A8
:1018F000036AD0F820C02CF4805CC0F820C0D0F877
:101900001CC023F420432CF4407C4CEA012121F438
:10191000704C4FF6FF7101EA07314FF4204741EA5E
:101920000C0107EA02321A43C16102622868C169E8
:1019300021F44061C1612868C169A26841EA0221BD
:10194000C16181E710B5040003D094F83D0010B1E7
:1019500007E0012010BD002084F83C00204600F084
:101960001EF8022084F83D00211D206803F062F873
:10197000012084F8460084F83E0084F83F0084F893
:10198000400084F8410084F8420084F8430084F861
:10199000440084F8450084F83D00002010BD7047E5
:1019A00030B50446002551B104290DD0082910D0C6
:1019B00094F8410094F84520012811D10EE094F8E4
:1019C0003E0094F84220F7E794F83F0094F8432053
:1019D000F2E794F8400094F84420EDE7012A01D0A2
:1019E000012030BD022059B1042912D0082919D094
:1019F00084F8410084F845000C2944D0012540E0DA
:101A000084F83E0084F842002068C26842F0020276
:101A100010E084F83F0084F843002068C26842F078
:101A2000040207E084F8400084F844002068C2689B
:101A300042F00802C2600122206803F067F81449EE
:101A40002068884214D0B0F1804F11D011498842EB
:101A50000ED0114988420BD01049884208D0104955
:101A6000884205D00F49884202D00F49884204D1EC
:101A7000816801F00701062903D0016841F00101E6
:101A80000160284630BD2068C26842F01002D1E7EC
:101A9000000001400004004000080040000C00402D
:101AA00000040140004001400018004070B50D00E6
:101AB00004464FF0000607D0042D0AD0082D0DD0A3
:101AC0000C2D10D001262FE02068C16821F0020102
:101AD0000DE02068C16821F0040108E02068C168B9
:101AE00021F0080103E02068C16821F01001C16005
:101AF00000222946206803F009F82068016A41F2B3
:101B00001112114207D1016A9210114203D10168EA
:101B100021F001010160012045B1042D09D0082DFB
:101B20000AD004F8410F2071304670BD04F83E0F12
:101B3000F9E704F83F0FF6E704F8400FF3E72DE963
:101B4000F04104460068C66805694FF00007A90720
:101B500013D5B10711D5F91E016101202077206846
:101B600080698007204602D0FFF759FE04E000F0AC
:101B7000BBF8204600F04DF92777680716D57007A7
:101B800014D521686FF004000861022020772068D6
:101B9000806910F4407F204602D0FFF740FE04E049
:101BA00000F0A2F8204600F034F92777280715D571
:101BB000300713D521686FF00800086104202077F2
:101BC0002068C0698007204602D0FFF728FE04E0A5
:101BD00000F08AF8204600F01CF92777E80616D5B1
:101BE000F00614D521686FF01000086108202077F6
:101BF0002068C06910F4407F204602D0FFF70FFE36
:101C000004E000F071F8204600F003F92777E807B8
:101C100008D0F00706D021686FF001000861204667
:101C200000F05CF9280608D5300606D521686FF06B
:101C3000800008612046FFF7A7FA680608D57006FD
:101C400006D521686FF040000861204600F065F974
:101C5000A8060AD5B00608D521686FF020000861F3
:101C60002046BDE8F041FFF790BABDE8F0810000E2
:101C700070B586B0044614216846FEF74BFB206819
:101C8000B0F1804F28D115480024016841F00101CE
:101C90000160016801F001010591016841F0020154
:101CA00001600068022500F00200059028200090E5
:101CB000CDE901540126CDE9034669460848FEF7FF
:101CC000DFFD4FF481600090CDE90154CDE903467A
:101CD00069460448FEF7D4FD06B070BD30380240B6
:101CE0000000024000040240704770B5044690F8BE
:101CF0003C0000260D4601280FD0012084F83C004E
:101D00006AB1042A1DD0082A2FD00C2A3FD0012600
:101D1000002084F83C00304670BD022070BD206871
:101D200002F014FF2068816941F008018161206898
:101D3000816921F004018161206881692A69114368
:101D400011E0206802F032FF2068816941F40061EF
:101D500081612068816921F48061816120688169E5
:101D60002A6941EA02218161D2E7206802F054FF2A
:101D70002068C16941F00801C1612068C16921F092
:101D80000401C1612068C1692A69114311E020681A
:101D900002F076FF2068C16941F40061C1612068EA
:101DA000C16921F48061C1612068C1692A6941EA81
:101DB0000221C161ACE710B5040003D094F83D00E6
:101DC00010B107E0012010BD002084F83C0020463F
:101DD00000F01EF8022084F83D00211D206802F06A
:101DE00029FE012084F8460084F83E0084F83F0074
:101DF00084F8400084F8410084F8420084F84300ED
:101E000084F8440084F8450084F83D00002010BDAB
:101E10007047704710B50446022249B104290ED01C
:101E2000082913D094F84100012816D0012010BDD4
:101E300094F83E000128F9D184F83E200FE094F890
:101E40003F000128F2D184F83F2008E094F84000D8
:101E50000128EBD184F8402001E084F841200122E0
:101E6000206802F053FE16492068164A884201D0C5
:101E7000904203D1436C43F400434364206888429A
:101E800013D0B0F1804F10D00F4988420DD00F49C8
:101E900088420AD00E49884207D0904205D00D49A9
:101EA000884202D00C49884204D1816801F00701C0
:101EB000062903D0016841F001010160002010BD36
:101EC0000000014000040140000400400008004000
:101ED000000C004000400140001800400068034929
:101EE000884201D1FEF7D0BD70470000001C0040C1
:101EF0000246002041B1042909D008290AD00C2942
:101F000001D11068006C70471068406B7047106812
:101F1000806B70471068C06B7047704770477047A0
:101F2000F8B5016804460868CA684B6910F00F0FDD
:101F30004FF0000559D003F0010602F490773743C3
:101F400065D0C10705D0D10503D5616C41F0010111
:101F50006164410705D5D90703D0616C41F00201E6
:101F60006164810705D5D90703D0616C41F0040194
:101F70006164010707D502F02001314303D0616C91
:101F800041F008016164616C00293AD0800604D5F3
:101F9000900602D5204602F049FF20684069616C36
:101FA000C0F38010090700D460B3204602F017FF89
:101FB00020684069400621D52068143050E8001F91
:101FC00021F0400140E80012002AF5D1E06BA8B1F1
:101FD0006E490165E06BFEF72FFC002811D0E06B25
:101FE000016D01B0BDE8F040084783060FD59306A8
:101FF0000DD52046BDE8F84002F018BF2046FFF797
:102000008EFFF8BD2046FFF78AFF6564F8BD266B9A
:102010002023012E7DD1C6067BD5D60679D508684A
:102020004868009048694FF00206400641D5E16BD0
:10203000086840680004000CE8D0A28D8242E5D90F
:10204000E085C869B0F5807F2DD020680C3050E85D
:10205000001F21F4807140E80012002AF5D12068A9
:10206000143050E8001F21F0010140E80012002A5E
:10207000F5D12068143050E8001F21F0400140E8FD
:102080000012002AF5D184F84230256320680C3014
:1020900050E8001F21F0100140E80012002AF5D19D
:1020A000E06BFEF780FB6663A08DE18D401A81B284
:1020B0002AE0A08DE18D401A81B2E08D0028A5D0E4
:1020C0000029A3D022680C3252E8000F20F490704F
:1020D00042E80007002FF5D12068143050E8002FA7
:1020E00022F0010240E80027002FF5D184F84230A9
:1020F000256320680C3050E8002F22F0100240E8E1
:102100000023002BF5D166632046FFF707FFF8BDDB
:10211000FFE705062BD5150629D594F8410021289F
:10212000F5D1A068B0F5805F01D12069B0B1206A17
:10213000411C2162216800784860E08C401E000448
:10214000000CE084E3D12068C16821F08001C16007
:102150002068C16841F04001C160D8E7206A00886A
:10216000C0F308004860206A801C2062E5E7400652
:10217000CDD55006CBD5CA68204622F04002CA60B1
:1021800084F8413000F0FDF8C1E70000CF4D0008B1
:1021900070B5040004D094F84100002510B106E0A9
:1021A000012070BD84F84050204600F023F8242020
:1021B00084F841002068C16821F40051C1602046C4
:1021C00002F096FE2068016921F4904101612068C7
:1021D000416921F02A0141612068C16841F4005140
:1021E000C1606564202084F8410084F84200656382
:1021F000002070BD70B586B0044614216846FEF715
:1022000089F82B4E226800212A480223032407253F
:10221000B24222D1274A1432166846F010061660E0
:10222000126802F010020592026842F00102026098
:10223000006802AA00F00100059082E83200600206
:10224000CDE9000369461C48FEF71AFB0022052170
:102250002520FEF7B1FC252025E0184EB24224D1FE
:10226000144A1032166846F480261660126802F48A
:1022700080220592026842F008020260006802AA09
:1022800000F00800059082E832004FF44070CDE97C
:10229000000369460A48FEF7F3FA002206212720C8
:1022A000FEF78AFC2720FEF779FC06B070BD00001F
:1022B0000010014030380240000002400048004059
:1022C000000C024090F84230202B01D002207047D1
:1022D00021B11AB10023036302F090BE01207047C0
:1022E00070472DE9F843044690F841009846164699
:1022F0000D46202802D00220BDE8F88385B17EB1CA
:1023000000206064212084F84100FEF7B7FBA6841A
:102310008146E684A0682027B0F5805F02D003E004
:102320000120E9E7206910B12E4600250EE00026C5
:102330000CE08021204602F07CFEA8B9C6B116F858
:10234000010B21684860E08C401EE084E08C4B4625
:102350004FF00002CDF800800028EAD14FF0400194
:10236000204602F066FE40B184F841700320C3E7C6
:1023700035F8020BC0F30800E3E784F84170002051
:10238000BAE77047FEE700002DED068BA4B00026EB
:10239000ADF84060ADF84460ADF84860ADF84C6011
:1023A0009FEDB18AB0EE481A9FEDB0AAF0EE4A0A4E
:1023B000DFEDAFAA14A8B0EE6A0A03F00FFDB0EE8D
:1023C000481AF0EE4A0AB0EE6A0A19A803F006FDB0
:1023D000B0EE481AF0EE4A0AB0EE6A0A1EA803F000
:1023E000FDFCB0EE481AF0EE4A0AB0EE6A0A01A807
:1023F00003F0F4FCB0EE481AF0EE4A0AB0EE6A0AB6
:1024000006A803F0EBFCB0EE481AF0EE4A0AB0EE74
:102410006A0A0BA803F0E2FC964FDFF85C82DFF853
:102420005CB2DFF85C92DFF85CA2974DA7F1800404
:1024300000231A4623A9B86804F0C4F898B9934851
:102440000068416AA181E089E181081A80B200EE4A
:10245000100AB8EE400ADFED8E0A95F8240020EE4F
:10246000208A012807D095F824000028E0D1052013
:1024700004F06CF8DCE787480088C828D8D1864883
:102480000088C828D4D1B0EE481A9FED84AAF0EE97
:102490004A0ADFED83AA14A8B0EE6A0A03F09EFC94
:1024A000B0EE481AF0EE4A0AB0EE6A0A19A803F034
:1024B00095FCB0EE481AF0EE4A0AB0EE6A0A1EA881
:1024C00003F08CFC95ED000A764884ED180A95ED32
:1024D000010A12AA84ED190A95ED020A10A984EDE9
:1024E0001A0A0068009095ED080ABDEEC00A10EEC9
:1024F000100A94ED170A03B2BDEEC00A10EE100ADE
:1025000000B203F0ABFB0AEE100A674813AA11A948
:102510000068009095ED080ABDEEC00A10EE100AA2
:1025200094ED170A03B2BDEEC00A10EE100A00B215
:1025300003F094FBD5ED080A00EE100ACAED000A7C
:10254000F8EECA0AB8EEC00AB0EE481ACAED010A9F
:102550008AED020A9FED55AAF0EE4A0ADFED54AA71
:1025600001A8B0EE6A0A03F039FCB0EE481AF0EEAA
:102570004A0AB0EE6A0A06A803F030FCB0EE481A28
:10258000F0EE4A0AB0EE6A0A0BA803F027FC94EDBD
:10259000180A484810EE101A814203D810EE102A8B
:1025A000424501DB40EE088A94ED190A10EE101A3C
:1025B000814203D810EE102A424501DB40EE089A12
:1025C00094ED1A0A10EE101A814203D810EE100A88
:1025D000404501DB00EE089AB0EE680A01A803F05E
:1025E000D7FA8AED030AB0EE690A06A803F0D0FA1A
:1025F0008AED040AB0EE490A0BA803F0C9FA8AED85
:10260000050ADAED030A594610EE900A884203D211
:1026100010EE900A484505DD9AED061A00EE881A7C
:102620008AED061ADAED040A504610EE902A8A4224
:1026300003D210EE903A4B4505DD90ED071A00EEFF
:10264000881A80ED071A10EE102A5A4503D210EEB0
:10265000101A494505DDD0ED080A40EE080ACAED1A
:10266000080A85F8246002E76F12833A00004842A6
:10267000CDCCCC3DD8000020CDCCCC3C0AD723BD5E
:102680000AD7233D5C0300209C210020C8030020C2
:10269000BD37863512010020140100200000484398
:1026A0000AD7233C280000202C00002000007A4498
:1026B000CDCC4C3DCDCCCCBC2DED068B94B0FE48A2
:1026C000FEF7C6FE4FF00009C8464D464C469FED4A
:1026D000FB0A4E468DED0F0A8DED100A8DED110AA5
:1026E0008DED120ACB46CDF82490ADF80C90CA4679
:1026F000CDF80890CDF804900127B3EE0E9ADFEDE7
:10270000F09A9FEDF0AAF3EE098A9FEDEF8ACDF8DB
:1027100000900797ED4800231A4603A9C06803F00C
:1027200051FF00281FD1EA480088C82815D0052E7F
:1027300019D3E84810A90268E74890ED000A1E2066
:1027400004F02CFFE14980394880E448E4490068FE
:1027500088420DDD099838B10AE0052EE9D201F072
:102760001FFD761CB6B2DEE301F0D0FD012009901A
:10277000D6488038B0F9020090B38146D9480FA9F5
:102780000268D64890ED000A1E2004F007FFCF49EA
:102790008039888050B38046D34811A90268D34855
:1027A00090ED000A1E2004F0F9FEC8498039C88067
:1027B00008B30546CE4812A90268CE4890ED000A3B
:1027C0001E2004F0EBFEC14980390881B8B10446EF
:1027D000CFB1002F7DD0BD4880384089F0B363E091
:1027E000FFE7BA488038A0F80290C7E7B7498039B8
:1027F000A1F80480D0E7B5488038C580DAE7B3484F
:1028000080380481E4E7B1488038008A58B9AF487D
:102810008038B0F90830B0F90620B0F90410B0F9EA
:10282000020003F01DFDA9488038008A01280BD161
:10283000A6488038B0F90830B0F90620B0F9041085
:10284000B0F9020003F0A4FCA0488038008A0228F6
:102850000DD19E488038B0F9083000E020E0B0F992
:102860000620B0F90410B0F9020003F09FFD97486C
:102870008038008A03280BD194488038B0F908309A
:10288000B0F90620B0F90410B0F9020003F0F6FD2B
:102890008E488038008A042801D103F049FD09E2FE
:1028A00003F096F994490870DFF820C29248ACF121
:1028B000800C0078BCF8141088420ED040F28A21B7
:1028C000ACF80210ACF80410ACF80610ACF8081024
:1028D00000E0FDE34FF0000A02E0BAF1050F03D279
:1028E0000AF101011FFA81FA0828D8D2DFE800F0C6
:1028F000040FB2E2E1E0DFDEBCF90830BCF90620EB
:10290000BCF90410BCF9020003F0AAFCC7E76F4849
:102910008038C08A30BB6D49012080394623488108
:102920001A461946184603F033FCFA2003F00EFE4F
:1029300003F0FEFC7148654990ED080A6348803851
:1029400070EE680A80ED1B0A019800EE100A5F48DD
:10295000B8EE400A803830EEC00A80ED1C0A012033
:102960008039C8825949664A803991ED1C0A10EEB7
:10297000100A904203DD30EE480A81ED1C0A10EE89
:10298000100A604A904203D930EE080A81ED1C0A11
:102990004E49BDF80C008039D1ED1C0A91ED1B0A9F
:1029A00004F068FE554890ED080A48488038D0ED9C
:1029B0001C0A01F0E7FB10EE100A5349884206DDBD
:1029C0004248012180384181C182A0F818B04B48AB
:1029D00090ED080A3D488038D0ED1C0A01F0D2FB8A
:1029E00010EE100A4849884290DC38488038018B44
:1029F000491C89B20183032988D3A0F818B0A0F834
:102A00000AB0A0F816B003F093FC01F07FFC4FF47D
:102A1000C87003F09BFD3948022190ED080A2B484D
:102A2000803880ED170A029802280ED00098401CCA
:102A300000B2009003280BDB032290FBF2F0C0EB06
:102A400000120198104480B201E000200090019033
:102A50000291F4E12D4801882D48008881420BD86D
:102A6000BCF81A00012807D018488038A0F81AB01E
:102A7000008C00287DD0F8E0144801218038418383
:102A8000808BC0B9114901208039462348811A46FC
:102A90001946184603F07CFBFA2003F057FD03F0BB
:102AA00047FC164890ED080A084833E0FEE3C8E208
:102AB00049E2C7E135E13FE03005002000000000B9
:102AC00000002042000070420000B443D800002003
:102AD00012010020180000205401002050010020A5
:102AE000000020411C000020200000205801002090
:102AF000240000205C010020540000209C210020C4
:102B000000003443000034C30000A0400E01002048
:102B100010010020803870EE280A80ED1B0A019811
:102B200000EE100AB8EE400A30EE800AFE4880ED52
:102B30001C0A0120FC498883FB49FC4A91ED1C0AD0
:102B400010EE100A904203DD30EE480A81ED1C0AB7
:102B500010EE100AF64A904203D930EE080A81EDD1
:102B60001C0AF149BDF80C00D1ED1C0A91ED1B0ABD
:102B700000E057E004F07EFDEE4890ED080AEA48D8
:102B8000D0ED1C0A01F0FEFA10EE100AEA49884264
:102B900005DDE548012141818183A0F81EB0E548AB
:102BA00090ED080AE048D0ED1C0A01F0EBFA10EEB7
:102BB000100AE14988427DDCDB48C18B491C89B29F
:102BC000C183032976D3A0F81EB0A0F80AB0A0F8FC
:102BD0001CB003F0ADFBD748012190ED080AD248A4
:102BE00080ED170A029801280ED00098401C00B210
:102BF000009003280BDB032290FBF2F0C0EB0012E5
:102C00000198104480B201E00020009001904FF440
:102C1000C870029103F09AFC01F078FBC249A1F858
:102C20001AB03CE6C0490120462348811A4619469D
:102C3000184603F0ADFAFA2003F088FC03F078FBA5
:102C4000BC48B94990ED080AB74870EE680A80EDB3
:102C50001B0A019800EE100AB348B8EE400A30EEA5
:102C6000C00A80ED1C0A01200884AF49AF4A91EDEB
:102C70001C0A10EE100A904203DD30EE480A81ED86
:102C80001C0A10EE100AAA4A904203D930EE080A34
:102C900081ED1C0AA449BDF80C00D1ED1C0A91ED90
:102CA0001B0A04F0E7FCA34890ED080A9E48D0ED0B
:102CB0001C0A00E018E101F065FA10EE100A9E49C6
:102CC000884205DD9848012141810184A0F822B0A5
:102CD000984890ED080A9448D0ED1C0A01F052FA89
:102CE00010EE100A944988429BDC8F48418C491CA5
:102CF00089B24184032994D3A0F822B0A0F80AB085
:102D0000A0F820B0BDE20020009007E0032290FB75
:102D1000F2F0C0EB00120198104480B201900291D1
:102D200089E08148808C10BB7F490120462348817F
:102D30001A461946184603F02BFAFA2003F006FC4F
:102D400003F0F6FA7B48784990ED080A764870EE71
:102D5000280A80ED1B0A019800EE100A7248B8EEAE
:102D6000400A30EE800A80ED1C0A012088846E49FA
:102D70006E4A91ED1C0A10EE100A904203DD30EE0F
:102D8000480A81ED1C0A10EE100A694A904203D9E4
:102D900030EE080A81ED1C0A6349BDF80C00D1ED44
:102DA0001C0A91ED1B0A04F065FC624890ED080ACC
:102DB0005D48D0ED1C0A01F0E5F910EE100A5E49FD
:102DC000884205DD5848012141818184A0F826B060
:102DD000584890ED080A5448D0ED1C0A01F0D2F989
:102DE00010EE100A544988427EDC4F48C18C491CC1
:102DF00089B2C184032977D3A0F826B0A0F80AB01D
:102E0000A0F824B003F094FA4A49012091ED080A91
:102E1000454981ED170A0299012966D100210091E7
:102E200007E0032291FBF2F1C1EB01120199114479
:102E300089B2019102904FF4C87003F087FB01F052
:102E400065FA2CE53848008D10BB37490120462330
:102E500048811A461946184603F09AF9FA2003F0F9
:102E600075FB03F065FA33482F4990ED080A2E48A8
:102E700070EE490A80ED1B0A019800EE100A2A48FC
:102E8000B8EE400A30EEC00A80ED1C0A0120088529
:102E90002549264A91ED1C0A10EE100A904203DDE6
:102EA00030EE480A81ED1C0A10EE100A204A9042CA
:102EB00003D930EE080A81ED1C0A1B49BDF80C004D
:102EC000D1ED1C0A91ED1B0A04F0D4FB194890EDDA
:102ED000080A1548D0ED1C0A01F054F910EE100A4A
:102EE0001549884208DD01E010E11CE30E4801218C
:102EF00041810185A0F82AB00E4890ED080A0A48E1
:102F0000D0ED1C0A01F03EF910EE100A0A49884281
:102F100097DA0549488D401C80B24885032890D334
:102F2000A1F82AB00AE0FDE3580000200000344375
:102F3000000034C39C2100200000A040A1F80AB08A
:102F4000A1F828B0E2E2FD48808D10BBFB480121CA
:102F5000462341811A461946184603F019F9FA200A
:102F600003F0F4FA03F0E4F9F548F44990ED080AA7
:102F7000F24870EE090A80ED1B0A019800EE100A73
:102F8000EE48B8EE400A30EE800A80ED1C0A0120BF
:102F90008885EA49EB4A91ED1C0A10EE100A90422E
:102FA00003DD30EE480A81ED1C0A10EE100AE64AF5
:102FB000904203D930EE080A81ED1C0ADF49BDF8C2
:102FC0000C00D1ED1C0A91ED1B0A04F053FBDC4808
:102FD00090ED080AD948D0ED1C0A01F0D3F810EEA4
:102FE000100ADA49884205DDD449012048818885E4
:102FF000A1F82EB0D24890ED080AD048D0ED1C0AB6
:1030000001F0C0F810EE100AD04988427EDCCB48AF
:10301000C18D491C89B2C185032977D3A0F82EB090
:10302000A0F80AB0A0F82CB003F082F9C44801213E
:1030300090ED080AC14880ED170A0298012866D170
:1030400061E6C3480188C3480088814209D8BCF8BA
:103050003000012805D0B948A0F830B0C08EC0B308
:10306000C4E0B64801210186408E10BBB34901205F
:10307000462348811A461946184603F089F8FA2073
:1030800003F064FA03F054F9AD48AC4990ED080A36
:10309000AA4870EE290A80ED1B0A019800EE100A7A
:1030A000A648B8EE400A30EE800A80ED1C0A0120E6
:1030B0004886A249A34A91ED1C0A10EE100A9042DC
:1030C00003DD30EE480A81ED1C0A10EE100A01E023
:1030D00031E268E09C4A904203D930EE080A81ED63
:1030E0001C0A9649BDF80C00D1ED1C0A91ED1B0A93
:1030F00004F0C0FA924890ED080A9048D0ED1C0AFE
:1031000001F040F810EE100A904901E04AE0C5E0F5
:10311000884205DD8948012141814186A0F834B00B
:10312000874890ED080A8548D0ED1C0A01F02AF87E
:1031300010EE100A8549884234DC8048818E491C93
:1031400089B2818603292DD3A0F834B0A0F80AB043
:10315000A0F832B003F0ECF87948012190ED080AAC
:10316000764880ED170A029801280ED00098401C7E
:1031700000B2009003280BDB032290FBF2F0C0EBBF
:1031800000120198104480B201E0002000900190EC
:103190004FF4C870029103F0D9F901F0B7F867480D
:1031A000A0F830B03FE165490120462348811A4626
:1031B0001946184602F0ECFFFA2003F0C7F903F0B5
:1031C000B7F85F485D4990ED080A5C4870EE690AFF
:1031D00080ED1B0A019800EE100A5848B8EE400A2C
:1031E00030EEC00A80ED1C0A0120C8865349554ABA
:1031F00091ED1C0A10EE100A904203DD30EE480AF1
:1032000081ED1C0A10EE100A4F4A904203D930EEAD
:10321000080A81ED1C0A4949BDF80C00D1ED1C0AD1
:1032200091ED1B0A04F026FA454890ED080A434840
:10323000D0ED1C0A00F0A6FF10EE100A43498842A8
:1032400005DD3E4901204881C886A1F838B03C48D8
:1032500090ED080A3948D0ED1C0A00F093FF10EEFB
:10326000100A3A4988429DDC3448018F491C89B2D2
:103270000187032996D3A0F838B0A0F80AB0A0F8C7
:1032800036B003F055F82E48022190ED080A2B487D
:1032900080ED170A029802283FF4D2AE0098401C35
:1032A00000B200900328FFF63AAD2FE5FFE728486B
:1032B00001882848008881420AD8BCF83A000128D1
:1032C00006D01E48A0F83AB0B0F84000A8B3CFE04E
:1032D0001A4801214187808F10BB184901204623DD
:1032E00048811A461946184602F052FFFA2003F0A8
:1032F0002DF903F01DF81248104990ED080A0F4807
:1033000070EE0A0A80ED1B0A019800EE100A0B48C5
:10331000B8EE400A30EE800A80ED1C0A0120888752
:103320000649084A91ED1C0A10EE100A904203DD8E
:1033300030EE480A81ED1C0A0EE075E058000020CE
:103340009C21002000003443000034C30000A04052
:103350000E0100201001002010EE100AFE4A9042DB
:1033600003D930EE080A81ED1C0AFC49BDF80C00B7
:10337000D1ED1C0A91ED1B0A04F07CF9F84890EDA0
:10338000080AF648D0ED1C0A00F0FCFE10EE100A08
:10339000F449884205DDF148012141818187A0F887
:1033A0003EB0EF4890ED080AEC48D0ED1C0A00F062
:1033B000E9FE10EE100AEB49884234DCE748C18F81
:1033C000491C89B2C18703292DD3A0F83EB0A0F8CB
:1033D0000AB0A0F83CB002F0ABFFE149012091ED4A
:1033E000080ADE4981ED170A029901290ED00099D9
:1033F000491C09B2009103290BDB032291FBF2F176
:10340000C1EB01120199114489B201E00021009140
:10341000019102904FF4C87003F098F800F076FF25
:10342000CE49A1F83AB05CE3CC490120462348815B
:103430001A461946184602F0ABFEFA2003F086F849
:1034400002F076FFC648C54990ED080AC34870EE01
:103450004A0A80ED1B0A019800EE100ABF48B8EE38
:10346000400A30EEC00A80ED1C0A0120A1F840009D
:10347000BA49BD4A91ED1C0A10EE100A904203DDD4
:1034800030EE480A81ED1C0A10EE100AB24A904252
:1034900003D930EE080A81ED1C0AB049BDF80C00D2
:1034A000D1ED1C0A91ED1B0A04F0E4F8AC4890ED54
:1034B000080AAA48D0ED1C0A00F064FE10EE100ABB
:1034C000A849884206DDA54801214181A0F84010A5
:1034D000A0F842B0A24890ED080AA048D0ED1C0A1E
:1034E00000F050FE10EE100A9E4988429BDC9B487B
:1034F00030F8421F491C89B20180032993D39748B1
:10350000A0F842B0A0F80AB0A0F840B002F010FF56
:103510009349022091ED080A904981ED170A02991A
:1035200002293FF47BAC0099491C09B200910329A0
:10353000FFF680AC75E4032F02D0042F7ED0D0E2DA
:103540008648408918B902F007FC844948828348BC
:10355000408A50B98148B0F90830B0F90620B0F976
:103560000410B0F9020002F07BFE7C48418A012978
:10357000E5D17E497E4A0968914275D0B0F8440091
:10358000F8B976490120462348811A46194618465B
:1035900002F0FEFDFA2002F0D9FF02F0C9FE7048E9
:1035A0006E4990ED080A6D4880ED1B0A6F48D0ED1A
:1035B000000A6A4830EE600A80ED1C0A0120A1F87A
:1035C00044006649684A91ED1C0A10EE100A9042C8
:1035D00003DD30EE480A81ED1C0A10EE100A5E4A47
:1035E000904203D930EE080A81ED1C0A5B49BDF810
:1035F0000C00D1ED1C0A91ED1B0A04F03BF8584871
:1036000090ED080A5548D0ED1C0A00F0BBFD10EE05
:10361000100AB0F1804F06DD504801214181A0F829
:103620004410A0F846B04E4890ED080A4B48D0ED43
:103630001C0A00F0A7FD10EE100A00E0ACE0B0F1AB
:10364000804F70DC454830F8461F491C89B2018024
:10365000032968D341480146A0F846B0A1F80AB052
:10366000A1F844B073E0FFE7B0F84800E8B93B497F
:103670000120462348811A461946184602F088FD63
:10368000FA2002F063FF02F053FE3548DFED390AFD
:10369000324990ED080A314880ED1B0A30EE600A8D
:1036A00080ED1C0A0120A1F848002C492E4A91ED1A
:1036B0001C0A10EE100A904203DD30EE480A81ED3C
:1036C0001C0A10EE100A244A904203D930EE080A70
:1036D00081ED1C0A2149BDF80C00D1ED1C0A91EDC9
:1036E0001B0A03F0C7FF1E4890ED080A1B48D0EDE7
:1036F0001C0A00F047FD10EE100AB0F1804F06DD05
:10370000164801214181A0F84810A0F84AB0144899
:1037100090ED080A1148D0ED1C0A00F033FD10EEC0
:10372000100A01E0E0E1BEE0B0F1804F89DC0B4817
:1037300030F84A1F491C89B20180032989D3074800
:103740000146A0F84AB0A0F80AB0A1F848B002F0CB
:10375000EFFD002009900FE0000034C35800002066
:103760009C2100200000A04000003443F80000200D
:103770000000C8430000344300F012FD4FF4C8704D
:1037800002F0E4FEDE48A0F812B0DE4890ED080A30
:10379000DB4880ED170AA4E10798012806D002282B
:1037A0006AD003287ED004287DD134E1D449B1F811
:1037B0004C0058B9D34890ED080A012081ED1B0A4E
:1037C00030EE280A81ED1C0AA1F84C0091ED1C0A8C
:1037D000CD4A10EE100A904203DD30EE480A81ED2A
:1037E0001C0A10EE100AC94A904203D930EE080AAA
:1037F00081ED1C0AC249BDF80C00D1ED1C0A91ED07
:103800001B0A03F037FFBF4890ED080ABC48D0ED13
:103810001C0A00F0B7FC10EE100AB0F17F5F05DD66
:10382000B7480121A0F84C10A0F84EB0B54890ED73
:10383000080AB348D0ED1C0A00F0A4FC10EE100AF0
:10384000B0F17F5F18DCAE48B0F84E10491C89B269
:10385000A0F84E1003290FD3A0F84EB0A0F80AB07C
:1038600002220792A0F84CB002F062FD00F04EFD7B
:103870004FF4FA7002F06AFEA149B1F8500058B94D
:10388000A04890ED080A012081ED1B0A30EE680A7D
:1038900081ED1C0AA1F8500091ED1C0A9A4A10EE25
:1038A000100A01E051E01CE1904203DD30EE480ACD
:1038B00081ED1C0A10EE100A944A904203D930EEB2
:1038C000080A81ED1C0A8E49BDF80C00D1ED1C0AD6
:1038D00091ED1B0A03F0CEFE8A4890ED080A884855
:1038E000D0ED1C0A00F04EFC10EE100AB0F17F5F24
:1038F00005DD83480121A0F85010A0F852B081489E
:1039000090ED080A7E48D0ED1C0A00F03BFC10EE5A
:10391000100AB0F17F5F18DC7949B1F85200401C01
:1039200080B2A1F8520003280FD3A1F852B0A1F839
:103930000AB0A1F850B002F0FBFC00F0E7FC032055
:1039400007904FF4FA7002F001FE6D49B1F854008F
:1039500058B96C4890ED080A012081ED1B0A30EE41
:10396000680A81ED1C0AA1F8540091ED1C0A664A10
:1039700010EE100A904203DD30EE480A81ED1C0A79
:1039800010EE100A614A904203D930EE080A81ED28
:103990001C0A5B49BDF80C00D1ED1C0A91ED1B0A15
:1039A00003F068FE574890ED080A5548D0ED1C0A10
:1039B00000F0E8FB10EE100AB0F17F5F05DD504823
:1039C0000121A0F85410A0F856B04E4890ED080A16
:1039D0004B48D0ED1C0A00F0D5FB10EE100AB0F1F8
:1039E0007F5F18DC4648B0F85610491C89B2A0F831
:1039F000561003290FD3A0F856B0A0F80AB0A0F8CB
:103A000054B002F095FC00F081FC042007904FF4C4
:103A1000FA7002F09BFD3A49B1F8580058B939489C
:103A200090ED080A012081ED1B0A30EE280A81ED95
:103A30001C0AA1F8580091ED1C0A334A10EE100A36
:103A4000904203DD30EE480A81ED1C0A10EE100AA8
:103A50002E4A904203D930EE080A81ED1C0A28490B
:103A6000BDF80C00D1ED1C0A91ED1B0A03F002FE1B
:103A7000244890ED080A2248D0ED1C0A00F082FB91
:103A800010EE100AB0F17F5F05DD1D480121A0F89E
:103A90005810A0F85AB01B4890ED080A1848D0ED0D
:103AA0001C0A00F06FFB10EE100AB0F17F5F18DC0B
:103AB0001348B0F85A10491C89B2A0F85A100329CB
:103AC0000FD3A0F85AB0A0F80AB0A0F858B002F08E
:103AD0002FFC0120079000F019FC4FF4FA7002F05F
:103AE00035FD052002F032FD05480188491C89B2E8
:103AF000018064297EF60EAEA0F800B0FEF70ABE83
:103B0000580000209C21002000003443000034C3F2
:103B100070B51A4A0221202002F086FD184C174A7F
:103B2000022160601832202002F07EFD134AA0605E
:103B300030320221142002F077FD104AE060903A02
:103B40000021104802F0D0FDA4F180050B4A6867FF
:103B50006C3A00210C4802F0C7FD084AA867483AB1
:103B600000210A4802F0C0FD044AE867243A002117
:103B7000074802F0B9FD206070BD0000148D0008F8
:103B8000D80000207143000889230008B9260008E6
:103B90009B070008F0B587B014216846FCF7BAFB14
:103BA0002F480024016841F080010160016801F0A4
:103BB00080010591016841F001010160016801F097
:103BC00001010591016841F010010160016801F0F7
:103BD00010010591016841F002010160016801F0E6
:103BE00002010591016841F008010160016801F0DE
:103BF00008010591016841F0040101600068194E57
:103C000000F00400059000224FF4A8413046FCF774
:103C10002FFF154F0022FF213846FCF729FF3015F2
:103C20000125CDE900050220CDE902506946304664
:103C3000FCF726FE4FF4A0400090CDE90154694600
:103C400030460394FCF71CFEFF200090CDE90154A0
:103C5000694638460394FCF713FE07B0F0BD000038
:103C60003038024000100240000C02400C4810B5F1
:103C70000A49016040F24731416000214FF47A72F5
:103C8000C0E9021201618161FDF7C8FA002803D082
:103C9000BDE81040FCF785BD10BD000000480140A4
:103CA000080600201FB500211148009101910291E2
:103CB0000E4A0391026040F24732C0E9012142F20C
:103CC0001072C0E903218161FDF7A8FA08B1FCF781
:103CD00068FD4FF48050009069460548FDF7F8FBF9
:103CE000002801D0FCF75DFD1FBD0000001800405A
:103CF0005006002010B58AB000242B480494059487
:103D00000694079408940994009401940294254918
:103D10000394016040F24731C0E901144FF6FF718E
:103D2000C0E9031444618461FDF778FA08B1FCF737
:103D300038FD4FF48050049004A91B48FDF7C8FBE0
:103D400008B1FCF72EFD1848FDF7FCFD08B1FCF7A3
:103D500028FD089408A914480994FDF717FA08B13A
:103D6000FCF71FFD0120CDE90040029400226946C6
:103D70000D480394FDF754FD08B1FCF712FD042231
:103D800069460948FDF74CFD08B1FCF70AFD082219
:103D900069460548FDF744FD002801D0FCF701FD08
:103DA0000AB010BD000001408003002010B58EB0A5
:103DB00000240794089409940A940B941C216846E3
:103DC0000C94FCF7A7FA2A484FF08041016040F2BA
:103DD0004731C0E9011440F2CF71C0E90314846196
:103DE000FDF71CFA08B1FCF7DCFC4FF4805007909B
:103DF00007A91F48FDF76CFB08B1FCF7D2FC1C4873
:103E0000FDF7D9FF08B1FCF7CCFC0B940BA91848BF
:103E10000C94FDF7BBF908B1FCF7C3FC6020CDE9B9
:103E2000000402940022694611480494FDF75DFFE6
:103E300008B1FCF7B6FC042269460D48FDF755FFB2
:103E400008B1FCF7AEFC082269460948FDF74DFFB2
:103E500008B1FCF7A6FC0C2269460548FDF745FFB2
:103E600008B1FCF79EFC0248FDF702FF0EB010BD42
:103E7000C803002010B58CB024216846FCF74AFA2C
:103E800000241748099415490A94C0E9001444F61F
:103E90002061C0E90241046184610320CDE900048E
:103EA0000120CDE902040494CDE905400794694658
:103EB0000B480894FDF77AFB08B1FCF772FC0994F3
:103EC00009A907480A94FDF761F908B1FCF769FCF4
:103ED0003C210348FDF75CFC0CB010BD0004004021
:103EE0001004002010B58CB024216846FCF712FAAB
:103EF00000241748099415490A94C0E9001444F6AF
:103F00002061C0E90241046184610320CDE900041D
:103F10000120CDE902040494CDE9054007946946E7
:103F20000B480894FDF742FB08B1FCF73AFC0994F2
:103F300009A907480A94FDF729F908B1FCF731FCF3
:103F40003C210348FDF724FC0CB010BD00080040E4
:103F50005804002010B58CB024216846FCF7DAF92B
:103F600000241748099415490A94C0E9001444F63E
:103F70002061C0E90241046184610320CDE90004AD
:103F80000120CDE902040494CDE905400794694677
:103F90000B480894FDF70AFB08B1FCF702FC0994F2
:103FA00009A907480A94FDF7F1F808B1FCF7F9FBF5
:103FB0003C210348FDF7ECFB0CB010BD000C0040A9
:103FC000A00400201CB500240F4800940D49019462
:103FD000016040F24731C0E9011440F21F318461B1
:103FE000C160FDF71BF908B1FCF7DBFB00946946E3
:103FF00005480194FDF7CAF8002801D0FCF7D1FB71
:104000001CBD000000100040E80400201CB5002486
:104010000F4800940D490194016040F24731C0E916
:10402000011440F2CF718461C160FDF7F7F808B167
:10403000FCF7B7FB0094694605480194FDF7A6F824
:10404000002801D0FCF7ADFB1CBD000000140040AF
:104050003005002010B58CB024216846FCF75AF9D1
:1040600000241848099416490A94C0E9001444F63B
:104070002061C0E902410461446184610320CDE90B
:1040800000040120CDE902040494CDE90540079421
:1040900069460C480894FDF789FA08B1FCF781FBE2
:1040A000099409A907480A94FDF770F808B1FCF7CC
:1040B00078FB3C210348FDF76BFB0CB010BD000002
:1040C00000040140780500201FB500211048009130
:1040D000019102910D4A039102605322C0E901212E
:1040E0004FF6FF72C0E903218161FDF797F808B12F
:1040F000FCF757FB4FF48050009069460448FDF7E9
:10410000E7F9002801D0FCF74CFB1FBD004001403F
:10411000C00500200C4810B50A4901604FF4165143
:104120004160002181600C22C160C0E904128161FC
:10413000C161FEF72DF8002803D0BDE81040FCF760
:1041400030BB10BD00100140CC2000200C4810B541
:104150000A4901604FF4E1314160002181600C2285
:10416000C160C0E904128161C161FEF711F8002845
:1041700003D0BDE81040FCF714BB10BD0048004060
:1041800014210020B0EE401A31EE600AB5EEC00AEC
:10419000F1EE10FA01DC30EEC10A7047FEE7FEE7EF
:1041A0009FED4C0A4C48BFEE082A416981ED050A93
:1041B00081ED022ADFED490AB3EE091AC1ED010AC9
:1041C00081ED001ADFED462AC1ED032ADFED451A25
:1041D000C1ED041A9FED443A81ED073A816981ED02
:1041E000050A81ED022AC1ED010A81ED001AC1ED37
:1041F000032AC1ED041A81ED073AC16981ED050A70
:1042000081ED022AC1ED010A81ED001AC1ED032AF8
:10421000C1ED041A81ED073A016A81ED050A81EDCD
:10422000022AC1ED010A81ED001AC1ED032AC1ED98
:10423000041A81ED073A416AB2EE042AF6EE002A2A
:1042400081ED050A81ED022A9FED283AC1ED012A90
:1042500081ED003A81ED030A81ED040A816A81ED66
:10426000050A81ED022AC1ED012A81ED003A81EDB6
:10427000030A81ED040AC16A9FED1D0ADFED222ABF
:1042800081ED001A81ED012A81ED020A9FED190AE4
:10429000C1ED031A81ED040A9FED170A9FED171A6D
:1042A00081ED050A016BB3EE040ADFED151A81ED0D
:1042B000000A9FED142AC1ED050A091D81EC041ABC
:1042C000406B80ED000AC0ED050A001D80EC041A69
:1042D0007047000000004843040000200000000078
:1042E0000000AF440000C844000048C3CDCC4C3DA2
:1042F000666666BF0080ED4400004842CDCC4C3F6E
:104300009A9999BE0000FA4300002F4415489FED8A
:10431000140AF3EE060A41699FED131A81ED010AB2
:10432000C1ED000A81ED051A816981ED010AC1ED37
:10433000000A81ED051AC16981ED010AC1ED000A8B
:1043400081ED051A016A81ED010AC1ED000A81EDD6
:10435000051AC06A9FED050A80ED050A7047000046
:104360009A991940040000200000484300001643B9
:10437000012002F0EBF8FBE710B54FF0E0200069F8
:1043800004F0CAFA012803D0BDE8104003F08ABF48
:1043900010BD000030B593B030216846FBF7BAFF7E
:1043A00014210CA8FBF7B6FF1C480025016841F05A
:1043B00080510160006800F0805011901848016839
:1043C00041F4804101600068022400F480401190B3
:1043D000012003901020009406940490CDE907502A
:1043E0004FF4A870CDE9090407200B906846FCF74C
:1043F00015FD08B172B6FEE70CA90F2081E8310067
:104400004FF4A0500F90109005210CA8FCF706FC6B
:10441000002801D072B6FEE713B030BD403802402C
:10442000007000400248016841F47001016070476B
:1044300088ED00E02DE9F047B14C20680169DFF814
:10444000C4A2DFF8C48289074FF001094FF00005CC
:104450006ED5C068C04380076AD498F80500294625
:104460000028204624D0FDF743FD81B2A8F83C1077
:104470002068026A22F00A0202622068026A02626E
:1044800088F8055098F80800032849D8B8F83A2069
:10449000891A9E4A514391FBFAF208F16C0121F806
:1044A0001020401CC0B288F80800042811D037E062
:1044B000FDF71EFDA8F83A002068016A21F00A0104
:1044C00001622068016A41F00201016288F80590EA
:1044D0002AE00022104601E0002012E001EB400734
:1044E00031F810307E88B3420AD900EE103A21F834
:1044F0001060B8EE400ABCEEC00A10EE103A7B80A5
:10450000401CC2F103038342E8DC521C042AE3DBB3
:104510004888898808444008A8F80C0088F80850A2
:1045200000217748FDF7C2FA21686FF002000861A8
:104530002068016949076FD5C068C04340076BD444
:1045400098F806004FF0040100286D4824D0FDF7CC
:10455000CFFC81B2A8F83C102068026A22F0A002C9
:1045600002622068026A026288F8065098F8090020
:10457000032849D8B8F83A20891A644A514391FB74
:10458000FAF26149743121F81020401CC0B288F859
:104590000900042811D037E0FDF7AAFCA8F83A007A
:1045A0002068016A21F0A00101622068016A41F0DF
:1045B0002001016288F806902AE00022104601E0FE
:1045C000002012E001EB400731F810307E88B34242
:1045D0000AD900EE103A21F81060B8EE400ABCEE9D
:1045E000C00A10EE103A7B80401CC2F103038342E4
:1045F000E8DC521C042AE3DB488889880844400828
:10460000A8F80E0088F8095004213D48FDF74EFA3D
:1046100021686FF0040008612068016909076AD504
:10462000C068C043000766D498F8070046460028D3
:1046300033484FF008011FD0FDF75AFC81B2B18713
:104640002068026A22F4206202622068026A026222
:10465000F571B07A032846D8728F891A2B4A5143D4
:1046600091FBFAF228497C3121F81020401CC0B29D
:10467000B072042810D036E0FDF73AFC708720684D
:10468000016A21F4206101622068016A41F400712D
:10469000016286F807902AE00022104601E000201F
:1046A00014E001EB400C31F81030BCF80270BB4252
:1046B0000BD900EE103A21F81070B8EE400ABCEEAB
:1046C000C00A10EE103AACF80230401CC2F10303ED
:1046D0008342E6DC521C042AE1DB488889880844CE
:1046E00040083082B57208210548FDF7DFF92168DE
:1046F0006FF008000861BDE8F0470148FDF71FBAF8
:1047000080030020400D0300000100202030050040
:1047100038B53B4800680169C90769D06FF00101ED
:10472000016138480088042862D1374C608AC82863
:104730005ED1208F401C80B22087022858D101F022
:104740002DFBE08201F032FB208301F037FB608318
:1047500001F03CFBA08304F12803022003F10802CE
:10476000A2F110010090A1F1080000F041FD04F158
:10477000260384ED140A012003F10802A2F11001BE
:104780000090A1F1080000F033FD04F12A0384ED4C
:10479000150A032003F10802A2F110010090A1F113
:1047A000080000F025FD04F12C0384ED160A042016
:1047B00003F10802A2F110010090A1F1080000F03D
:1047C00017FD124884ED170A04F15C0300881A1FD4
:1047D000111F0090081F01F091FC04F15C031A1FE7
:1047E000111F9FED0B0A081F01F05CFB00202087C2
:1047F0000848FDF7A4F9BDE838400148FDF79FB926
:1048000008060020680000200001002000000020B1
:104810000AD7A33C800300202DE9F0413A4C3B4EDF
:104820003B4FB4F842000025A0B94FF48068012244
:1048300041463046FCF71CF91420FBF785FF0022A7
:1048400041463046FCF714F9386845620021384685
:10485000FDF7A6F8B4F84200012814D14FF48058AF
:10486000012241463046FCF703F91420FBF76CFFA8
:10487000002241463046FCF7FBF8386845620421C7
:104880002348FDF78DF8B4F84200022814D14FF404
:104890008048012241463046FCF7EAF81420FBF735
:1048A00053FF002241463046FCF7E2F83868456283
:1048B00008211748FDF774F8B4F84200401C80B294
:1048C000A4F84200032801D1A4F84250B4F84600ED
:1048D000642807D0401CA4F84600BDE8F0410D480C
:1048E000FDF72DB90C48A4F84650B4F844100088E0
:1048F000814205D10A489FED090A80ED000AECE7E4
:10490000A4F84400E9E70000000100200010024084
:1049100080030020E8040020EA0000200000C843D3
:10492000F800002010B5294C2949B4F84800401C73
:1049300080B2A4F8480091ED080A142884ED180A02
:1049400037D1D4ED190AFFF71DFCD4ED180A214820
:1049500010EE902A2049DFED211A824209D994ED08
:10496000191A11EE102A8A4203DD31EEC10A30EE27
:10497000200A10EE902A8A4209DD94ED191A11EEF0
:10498000101A814203D931EEE00A30EE010A00200C
:1049900010EE101AB1F1804F05DCB4F84A10491C32
:1049A000A4F84A1001E0A4F84A00C4ED190AA4F8DA
:1049B00048000B48054900231A464A31006801F0B7
:1049C0005FFEBDE810400748FDF7B9B800010020C0
:1049D0009C2100200000B4C20000B4420000B44397
:1049E000E40000203005002010B5074802F096FDD5
:1049F0000648C18E491CC1860548FDF7A0F8BDE8F0
:104A000010400448FDF79BB89806002000010020E4
:104A1000780500205006002010B50448FDF78FF8F7
:104A2000BDE810400248FDF78AB800007805002074
:104A300078230020F0B50268294C2A4D2A4E2B4FCE
:104A40002B4B4FF0804CA04209D0604507D0A842C4
:104A500005D0B04203D0B84201D0984204D122F030
:104A6000700E4A6842EA0E02A0421BD0604519D07F
:104A7000A84217D0B04215D0B84213D0984211D0F6
:104A80001C4DA8420ED01C4DA8420BD01B4DA84275
:104A900008D01B4DA84205D01A4DA84202D01A4D8D
:104AA000A84203D122F44075CA682A434D6922F016
:104AB00080022A4302608A68C2620A688262A04257
:104AC00001D0984201D10969016301214161016965
:104AD000C90703D0016921F001010161F0BD0000A7
:104AE000000001400004004000080040000C0040AD
:104AF00000040140004001400044014000480140E2
:104B000000180040001C00400020004010B501F0DB
:104B10001F030121046A99408C430462016A9A4090
:104B20001143016210BD10B5846842EA032224F4E7
:104B30007F440A432243826010BD826822F07002E3
:104B40000A4342F00701816070470000F0B5036A34
:104B5000026A22F00102026242688469124E24F065
:104B600073050C682C4323F002058B682B430D4D15
:104B7000A84201D0B04205D123F00807CB683B43DF
:104B800023F00403A84201D0B04205D14D6922F4BC
:104B9000407215438A692A434260846149684163CF
:104BA0000362F0BD0000014000040140F0B5026A5C
:104BB000036A23F010030362436884690D6824F4D8
:104BC000E64444EA05248D6822F0200242EA0512F8
:104BD0000F4D104EA84201D0B04206D1CF6822F04E
:104BE000800242EA071222F04002A84201D0B042FD
:104BF00007D14D6923F4406343EA85038D6943EA95
:104C0000850343608461496881630262F0BD0000EE
:104C10000000014000040140F0B5026A036A23F479
:104C2000807303624368C46922F4007224F0730540
:104C30000C68124E2C438D6842EA05220E4DA842A4
:104C400001D0B04206D1CF6822F4006242EA0722C6
:104C500022F48062A84201D0B04207D14D6923F40A
:104C6000405343EA05138D6943EA05134360C46169
:104C70004968C1630262F0BD0000014000040140C8
:104C800030B5046A026A22F4805202624268C36943
:104C90000D6823F4E64343EA05238D6824F40054A9
:104CA00044EA0534084DA84202D0084DA84204D178
:104CB0004D6922F4804242EA85124260C36149682C
:104CC0000164046230BD00000000014000040140A6
:104CD00010B5036A046A24F001040462846924F0B4
:104CE000F00444EA021423F00A020A4384610262D7
:104CF00010BD000070B5056A046A24F00104046266
:104D00008469154EB04214D0B0F1804F11D0134ECB
:104D1000B0420ED0124EB0420BD0124EB04208D06C
:104D2000114EB04205D0114EB04202D0104EB042EA
:104D300003D124F00304144301E044F001041A07F2
:104D400024F0F00444EA126225F00A0301F00A019B
:104D500019438261016270BD0000014000040040FF
:104D600000080040000C00400004014000400140E9
:104D70000018004010B5036A046A24F010040462AD
:104D8000846923F0A00324F4704444EA023243EA25
:104D900001118261016210BD30B5046A056A25F017
:104DA00010050562856925F4407545EA022222F462
:104DB00070454FF6FF7202EA033224F0A0032A4343
:104DC000A02404EA011119438261016230BD10B5CB
:104DD000806B0021C185C184FDF7A1F810BD016879
:104DE0000C3151E8002F22F4907241E80023002B8F
:104DF000F5D10168143151E8002F22F0010241E899
:104E00000023002BF5D1016B012909D101680C3178
:104E100051E8002F22F0100241E80023002BF5D1C9
:104E2000202180F8421000210163704708B590F8F6
:104E30004210222901D0022008BD82684FF480531D
:104E40009A4201D1016921B1816A9A421BD04AB1CB
:104E50000AE00268816A5268C2F308020A80816A25
:104E6000891C08E0026972B10268526802F07F0290
:104E70000A70816A491C8162C18D491E0904090CAE
:104E8000C18503D01BE002685268F1E70168CA6877
:104E900022F02002CA600168CA6822F48072CA60E7
:104EA00001684A6922F001024A61202180F842101B
:104EB00000214163026B012A03D0FDF711FA0020A3
:104EC00008BD016301680C3151E8002F22F0100287
:104ED00041E80023002BF5D101680A68D20602D50B
:104EE0000A6849680091818DFDF718F8E7E700002E
:104EF00070B5044600680169E26821F4405111432D
:104F000001612169A068E2690843616911430843AE
:104F10002168CA6849F20C639A430243CA60206858
:104F20004169A26921F4407111434161314920680E
:104F3000884202D03049884202D1FBF739FF01E0B4
:104F4000FBF726FFE2690023192164253226B2F51A
:104F5000004F626828D0A0FB0101930F9200FBF77D
:104F60008FF90146B0FBF5F06FF01802504301EBEA
:104F7000800006EB0010B0FBF5F000F0F002B1FB92
:104F8000F5F002EB0012B1FBF5F06FF01803584397
:104F900001EB800006EB0010B0FBF5F000F00F0015
:104FA00021681044886070BDA0FB010192185B412C
:104FB000FBF766F90146B0FBF5F00201B1FBF5F035
:104FC0006FF01803584301EB800006EBC000B0FB04
:104FD000F5F000F0F80002EB4002B1FBF5F05843A9
:104FE00001EB800006EBC000B0FBF5F000F007001D
:104FF000D6E7000000100140001401408162828564
:10500000C28500214164222180F84210016921B14A
:105010000168CA6842F48072CA6001684A6942F055
:1050200001024A610068C16841F02001C1600020AE
:1050300070472DE9F843984617460D460446089EEA
:1050400024E0701C22D0FBF719FDA0EB0800B04251
:105050001AD8CEB12068C168490717D5802D15D060
:10506000402D13D00168C94309070FD401680025FA
:10507000406800902046FFF7B2FE0820606484F884
:1050800040500120BDE8F8830320FBE7206800685A
:1050900035EA000004D00020B842D2D00020F1E769
:1050A0000120F9E72DE9F8433249086802689206C1
:1050B0005BD540688946314CC1B22F4AE08F00254C
:1050C00022F81010401C80B2E087C82800D3E58782
:1050D0002079012650B101280DD0284A264F527858
:1050E0008C3F02280DD003283AD114E0552937D13E
:1050F0002570267134E0A1700220207108206070B4
:105100002EE020783954401CC0B22070904227D342
:105110000320207124E0A07800F15503E370002300
:1051200008E000BF17F803C094F803805B1CC44478
:1051300084F803C09342F5DBE2788A420FD10E492E
:105140008C3901F017FB0C4800234C3800F1240186
:1051500080F824600A481A46006801F091FA257127
:10516000D9F80000016840680090BDE8F8430148A4
:10517000FCF7D6BECC200020E82100200001002052
:10518000E0000020164818B402681068800622D596
:1051900050681449C0B20023B1F8404034B1012C2A
:1051A00008D0022C0CD0032C12D10DE0AA280FD16C
:1051B000012002E0BB280BD10220A1F8400007E04B
:1051C000094B18800320F8E7CC2801D1A1F8403022
:1051D00010685068009018BC0148FCF7A1BE0000A0
:1051E000142100200001002068000020FEE70000DC
:1051F0002DE9F05F44F620652DED0E8B0488DDF877
:105200006080AC4201D90C8804800C8800EE104A02
:105210000488F8EE400A00EE104AB8EE400AFEF7A5
:10522000B1FFBCEEC00A4FF000094FF0050A10EEC6
:10523000104A14809FEDF99B9FEDFAAB9FEDFBBBED
:105240009FEDFCCB9FEDFDDB9FEDFEEBDFF8FCB3AC
:10525000DFF8FCC344F2682640F6B8379FEDFD8ABC
:10526000FD4CB8F1010F13D0B8F1020F7FD0B8F1A7
:10527000030F78D0B8F1040F76D1BCF800C0BCF1B0
:10528000010F72D04FF00008BCF1030F6ED06EE139
:10529000BCF800C0BCF1020F05D04FF00008BCF113
:1052A000040F22D001E04FF001084FF0000C00BFC6
:1052B00058EA0C080CD0B0F80080B04508D9B1F815
:1052C00000C0BC4504D2ACEB080CAC44A2F800C052
:1052D000DFF87CC3BCF800C0BCF1010F08D04FF070
:1052E0000008BCF1030F2DD004E04FF0010CDFE704
:1052F0004FF001084FF0000C58EA0C080AD0B1F842
:1053000000C0B44506D90688BE4203D2A6EB0C06FF
:10531000354415801588F0EE480A00EE105AB8EEB4
:10532000400AFEF72FFFBCEEC00AC94E10EE105A1D
:10533000ADB215803688052E03D035B11D80A4F896
:105340000090D6E04FF0010CD6E71B88138023882D
:105350005B1C9BB22380042B03D9A2F80090A4F815
:1053600000A0C6E003E06BE0EAE0FEE01FE1BCF86D
:1053700000C0BCF1020F05D04FF00008BCF1030FD4
:1053800021D001E04FF001084FF0000C58EA0C0862
:105390000CD0B0F80080B04508D9B1F800C0BC45C9
:1053A00004D2ACEB080CAC44A2F800C0DFF8A0C2F9
:1053B000BCF800C0BCF1010F08D04FF00008BCF1F0
:1053C000040F2DD004E04FF0010CDFE74FF001088F
:1053D0004FF0000C58EA0C080AD0B1F800C0B445F0
:1053E00006D90688BE4203D2A6EB0C0635441580CA
:1053F0001588F0EE480A00EE105AB8EE400AFEF7A3
:10540000C1FEBCEEC00A924E10EE105AADB215802D
:105410003688052E6DD035B11D80A4F8029068E065
:105420004FF0010CD6E71B88138063885B1C9BB28E
:105430006380042B5DD9A2F80090A4F802A058E084
:10544000BCF800C0BCF1010F05D04FF00008BCF162
:10545000040F22D001E04FF001084FF0000C00BF14
:1054600058EA0C080CD0B0F80080B04508D9B1F863
:1054700000C0BC4504D2ACEB080CAC44A2F800C0A0
:10548000DFF8CCC1BCF800C0BCF1020F08D04FF06F
:105490000008BCF1030F57D004E04FF0010CDFE728
:1054A0004FF001084FF0000C58EA0C080AD0B1F890
:1054B00000C0B44506D90688BE4203D2A6EB0C064E
:1054C000354415801588F0EE480A00EE105AB8EE03
:1054D000400AFEF757FEBCEEC00A5D4E10EE105AB1
:1054E000ADB215803688052E03D085B31D80A4F893
:1054F0000490008808801088FAF7F8FF53EC192B05
:10550000FAF785FF53EC1A2BFAF781FF53EC1B2BAC
:10551000FAF70BFF53EC1C2BFAF779FF53EC1D2B1A
:10552000FAF703FF53EC1E2BFAF7FFFEFAF7FEFF24
:1055300000EE100A10EE100A584501DDB0EE480AE0
:10554000BDEC0E8BBDE8F09F4FF0010CACE7FFE720
:105550001B881380A3885B1C9BB2A380042BC8D933
:10556000A2F80090A4F804A0C3E74FF001084FF0A0
:10557000000C00BF58EA0C080CD0B0F80080B04511
:1055800008D9B1F800C0BC4504D2ACEB080CAC445F
:10559000A2F800C0DFF8B8C0BCF800C0BCF1020F30
:1055A00008D04FF00008BCF1040F7AD004E04FF0AF
:1055B000010CDFE74FF001084FF0000C58EA0C082F
:1055C0000AD0B1F800C0B44506D90688BE4203D25D
:1055D000A6EB0C06354415801588F0EE488A00EEDF
:1055E000105AF0EE680AB8EE400AFEF7CBFDBCEEAA
:1055F000C00A174E10EE105AADB215803688052E2F
:105600009ED055B11D80A4F80690008808801088AF
:10561000FAF76CFF53EC192B20E045E07B14AE4702
:10562000E17A943F0000000000002A4000000000E2
:105630000000D03F0000000000003E40182D445400
:10564000FB2109400000000000001E4000007A44D9
:10565000000000200000000004000020FAF7D7FE40
:1056600053EC1A2BFAF7D3FE53EC1B2BFAF75DFE23
:1056700053EC1C2BFAF7CBFE53EC1D2BFAF755FE1F
:1056800053EC1E2BFAF751FEFAF750FF08EE100A02
:1056900018EE100A58457FF751AFB0EE688A4DE713
:1056A000FFE74FF0010C89E71B881380E3885B1C40
:1056B0009BB2E380042BA8D9A2F80090A4F806A01E
:1056C000A3E74100080218BF04200A0E18BF40F0EB
:1056D00001004FF07F4232EA010108BF40F00200B2
:1056E000012808BF052070470907090E002804DBC0
:1056F00000F1E02080F80014704700F00F0000F186
:10570000E02080F8141D704710EE101A08B5444AC6
:105710006846B2EB410F28D94FF0E640B0EB410F9D
:1057200094BF00204FF0FF3000900098002861DB0C
:1057300060EE000A10F0010F45D010F0020FDFED0F
:10574000391A9FED391A00EEE11ADFED381A40EEF2
:10575000811A21EEA01AF0EE400A40EE010A08BFBD
:10576000F1EE600AB0EE600A08BD314B21F0004254
:1057700093423CD911F0004FDFED2E0A20EE201AA3
:10578000DFED2D0A19BF31EE601A71EE200A31EEFD
:10579000201A71EE600ABDEEE01A11EE100A9FEDBC
:1057A000271A00F0030000EEC10A9FED251A0090B1
:1057B00000EEC10A9FED231A00EEC10A9FED221AE6
:1057C00000EEC10AB1E79FED211A9FED210A10F00A
:1057D000020F00EE810A9FED1F1A00EE801AB7EE4D
:1057E000000A00EE810A18BFB1EE400A08BD00F0C1
:1057F0000FF99AE710EE100A4000B0F17F4F3CBF5E
:10580000B7EE000A08BD07D14FF0010000F0BAF969
:10581000BDE8084000F0ECB8BDE8084000F0E4B88E
:10582000B61F927E336D4C39DA82083CA0AA2ABE9C
:10583000490E494683F9223F0000004B0000C93F52
:1058400000A0FD390020A2331A61342CB93AB2BA53
:10585000CA9F2A3DDDFFFFBE00B510EE101A2DEDE8
:10586000028B81B0524A6846B2EB410F2ED94FF0FD
:10587000E640B0EB410F94BF00204FF0FF300090A6
:105880000098B0EE408A00286ADB10F0010F4BD080
:1058900068EE080A9FED471A9FED470A00EE810A5D
:1058A0009FED461A10F0020F00EE801AB7EE000AC4
:1058B00000EE810A02BF01B0BDEC028B00BD00BF4B
:1058C00001B0B1EE400ABDEC028B00BD3C4B21F0B3
:1058D0000042934241D911F0004FDFED3A0A20EE29
:1058E000201ADFED390A19BF31EE601A71EE200A75
:1058F00031EE201A71EE600ABDEEE01A11EE100AC8
:105900009FED321A00F0030000EEC10A9FED301A3D
:10591000009000EEC10A9FED2F1A00EEC10A9FED24
:105920002E1A00EEC10AABE728EE080A9FED2B1AEB
:10593000DFED2B0A10F0020F40EE410A9FED291A0D
:1059400000EE201A61EE000AB0EE480A08EE200AC6
:10595000B6D101B0BDEC028B00BD00F059F88FE765
:1059600018EE100A4000B0F17F4F0DD218EE100A69
:10597000FFF7A7FE042808BF00F042F8B0EE480A7F
:1059800001B0BDEC028B00BD09D1012000F0FAF896
:1059900001B0BDEC028B5DF804EB00F029B801B05A
:1059A000B0EE480ABDEC028B5DF804EB00F01CB8C9
:1059B000B61F927EB93AB2BACA9F2A3DDDFFFFBE3A
:1059C000490E494683F9223F0000004B0000C93FC1
:1059D00000A0FD390020A2331A61342C336D4C39FC
:1059E000DA82083CA0AA2ABE30EE000A7047000006
:1059F000DFED020A80EEA00A704700000000000000
:105A00009FED020A20EE000A70470000000000101F
:105A10002DE9F0014FF07F42B2EB410F9FBF4FF0F5
:105A2000FF310160BDE8F00170474FF0004242EAEB
:105A30000123C1F3C752783A551112F01F0C434CA1
:105A4000CCF120067C44C1F3C752A2F178024FEAA0
:105A5000621204EB820254F8254008BFD2E90156D5
:105A600012D0556804FA0CF425FA06F73C439768FF
:105A700005FA0CF527FA06F8D26807FA0CFCF24092
:105A800045EA08054CEA0206A4FB034CA5FB0352B9
:105A9000A6FB03631D449D4234BF01260026131953
:105AA000334416B1934202D903E0934201D201225A
:105AB00000E00022624402F1200C9206DC0C42EA73
:105AC000443200EE102A5B03DFED210AF8EEC01A23
:105AD00000EE103A4FEA9C1C11F0004FB8EE400A5D
